:100000000C94DB000C940C010C940C010C940C016E
:100010000C940C010C940C010C940C010C940C012C
:100020000C940C010C940C010C940C010C940C011C
:100030000C940C010C940C010C940C010C940C010C
:100040000C940C010C940C010C940C010C940C01FC
:100050000C94E2020C940C010C940C010C940C0115
:100060000C940C010C940E010C940C010C940C01DA
:100070000C940C010C9455030C940C010C940C0181
:100080000C940C010C940C010C940C010C940C01BC
:100090000C9483010C940C010C940C010C940C0135
:1000A0000C940C010C940C010C940C010C940C019C
:1000B0000C940C010C940C010C940C010C940C018C
:1000C0000C940C010C940C010C940C010C94F80190
:1000D0000C940C010C940C010C946D020C940C010A
:1000E0000C940C010C94FC030C944F060C94460CDD
:1000F0000C94E605000306090C0F1215181C1F22AC
:1001000025282B2E303336393C3F414447494C4E4D
:10011000515355585A5C5E60626466686A6C6D6FD4
:1001200070727375767778797A7B7C7C7D7E7E7F42
:100130007F7F7F7F7F7F7F7F7F7F7E7E7D7C7C7BDD
:100140007A79787776757372706F6D6C6A686664A9
:1001500062605E5C5A585553514E4C494744413F8A
:100160003C393633302E2B2825221F1C1815120F30
:100170000C09060300FDFAF7F4F1EEEBE8E4E1DE2A
:10018000DBD8D5D2D0CDCAC7C4C1BFBCB9B7B4B211
:10019000AFADABA8A6A4A2A09E9C9A98969493916A
:1001A000908E8D8B8A8988878685848483828281DC
:1001B00081818181460C11241FBECFEFD1E2DEBFC9
:1001C000CDBF00E00CBF12E0A0E0B2E0E0ECFDE14A
:1001D00000E00BBF02C007900D92A431B107D9F720
:1001E00025E0A4E1B2E001C01D92AB38B207E1F70F
:1001F00010E0CBEDD0E000E006C021970109802F90
:10020000FE010E94CF0ECA3DD10780E00807A9F782
:100210000E9433080C94DE0E0C9400001F920F9283
:100220000FB60F9211240BB60F922F933F934F935B
:100230005F936F938F939F93AF93BF93CF93DF930E
:10024000EF93FF93E0918305F09184053097A9F136
:10025000A281B3818C9187FFFDCFA081B1816C9188
:10026000EF01C257DF4F48815981DF01A457BF4FCB
:100270002D913C911197C90101968F77907897FD48
:100280003AC0403851056CF140E850E0598348834A
:100290002E0F3F1FE9016A878D939C93E657FF4F0E
:1002A0008081918101968F77907897FF04C00197A4
:1002B00080689F6F019691838083FF91EF91DF911A
:1002C000CF91BF91AF919F918F916F915F914F911E
:1002D0003F912F910F900BBE0F900FBE0F901F906C
:1002E00018954F5F5F4F59834883E20FF31F628772
:1002F0008D939C93E2CF019780689F6F0196403861
:10030000510514F6EECF1F920F920FB60F921124E3
:100310000BB60F922F933F934F935F936F938F93EF
:100320009F93AF93BF93CF93DF93EF93FF93E091AE
:100330008505F09186053097A9F1A281B3818C9152
:1003400087FFFDCFA081B1816C91EF01C257DF4FD4
:1003500048815981DF01A457BF4F2D913C911197DE
:10036000C90101968F77907897FD3AC040385105C2
:100370006CF140E850E0598348832E0F3F1FE9019C
:100380006A878D939C93E657FF4F808191810196F8
:100390008F77907897FF04C0019780689F6F0196D0
:1003A00091838083FF91EF91DF91CF91BF91AF91C6
:1003B0009F918F916F915F914F913F912F910F90EE
:1003C0000BBE0F900FBE0F901F9018954F5F5F4FA1
:1003D00059834883E20FF31F62878D939C93E2CF8A
:1003E000019780689F6F01964038510514F6EECF53
:1003F0001F920F920FB60F9211240BB60F922F93EC
:100400003F934F935F936F938F939F93AF93BF935C
:10041000CF93DF93EF93FF93E0918705F0918805E9
:100420003097A9F1A281B3818C9187FFFDCFA08184
:10043000B1816C91EF01C257DF4F48815981DF01D3
:10044000A457BF4F2D913C911197C90101968F7709
:10045000907897FD3AC0403851056CF140E850E083
:10046000598348832E0F3F1FE9016A878D939C9320
:10047000E657FF4F8081918101968F77907897FFA3
:1004800004C0019780689F6F019691838083FF91DC
:10049000EF91DF91CF91BF91AF919F918F916F912C
:1004A0005F914F913F912F910F900BBE0F900FBE18
:1004B0000F901F9018954F5F5F4F59834883E20F4D
:1004C000F31F62878D939C93E2CF019780689F6FA3
:1004D00001964038510514F6EECF1F920F920FB6D9
:1004E0000F9211240BB60F922F933F934F935F936C
:1004F0006F938F939F93AF93BF93CF93DF93EF93BC
:10050000FF93E0918905F0918A053097A9F1A281C6
:10051000B3818C9187FFFDCFA081B1816C91EF01F8
:10052000C257DF4F48815981DF01A457BF4F2D913A
:100530003C911197C90101968F77907897FD3AC049
:10054000403851056CF140E850E0598348832E0F44
:100550003F1FE9016A878D939C93E657FF4F808187
:10056000918101968F77907897FF04C001978068FA
:100570009F6F019691838083FF91EF91DF91CF91DF
:10058000BF91AF919F918F916F915F914F913F91EB
:100590002F910F900BBE0F900FBE0F901F901895CC
:1005A0004F5F5F4F59834883E20FF31F62878D933C
:1005B0009C93E2CF019780689F6F01964038510568
:1005C00014F6EECF1F920F920FB60F9211240BB6B6
:1005D0000F922F933F934F935F936F937F938F93DC
:1005E0009F93EF93FF934091780050917900569537
:1005F0004795569547956091F1047091F2042091CA
:10060000EF043091F004C90101968F77907897FF3D
:1006100004C0019780689F6F0196603871058CF166
:1006200060E870E07093F2046093F10423593B4F4B
:10063000F90140839093F0048093EF048091ED04DE
:100640009091EE0401968F77907897FD29C0909352
:10065000EE048093ED0480917A00806480937A00A8
:10066000FF91EF919F918F917F916F915F914F914A
:100670003F912F910F900BBE0F900FBE0F901F90C8
:1006800018956F5F7F4F7093F2046093F1042359C4
:100690003B4FF90140839093F0048093EF04DBCF4C
:1006A000019780689F6F0196D2CF1F920F920FB66D
:1006B0000F9211240F900FBE0F901F90189597FF67
:1006C00008959195819591090895EAE7F0E0808178
:1006D0008064808308958DE480937C0088E8809313
:1006E0007A0010927B00EEE7F0E080818C608083DE
:1006F000089520916F00216020936F001092800078
:100700009C01220F331F8E379105BCF0032E000C85
:10071000440B550B60E074E284EF90E00E94760E8B
:10072000309387002093860080E180938100809140
:100730008100816080938100089581319105ECF002
:10074000220F331F220F331F220F331F032E000CE3
:10075000440B550B60E074E284EF90E00E94760E4B
:10076000309387002093860080E180938100809100
:100770008100826080938100089584309105ECF0BF
:100780009C013695322F222737952795032E000C92
:10079000440B550B60E074E284EF90E00E94760E0B
:1007A000309387002093860080E1809381008091C0
:1007B00081008360809381000895322F2227032EC9
:1007C000000C440B550B60E074E284EF90E00E9453
:1007D000760E309387002093860080E1809381001D
:1007E000809181008460809381000895A8E1B0E049
:1007F000ECEFF3E00C94980E9A8789877E836D83E3
:100800003A8B298B81E090E02C0102C0440C551CEE
:100810004A95E2F721E0421652060CF0CEC1B20131
:1008200061507109161617060CF041C0A985BA85EA
:100830001196ED81FE8131960D811E81040D151DED
:1008400030E020E05D01C984DA84ED80FE80DF01C4
:10085000AE19BF09C20195958795AC01420F531F90
:1008600064177507C4F3AC014150510924233523A3
:10087000280F391FA217B3079CF4D5018C914601AC
:10088000820E931ED4019C91D5019C93D4018C932C
:1008900080814701820E931ED4019C9190838C939A
:1008A000BFEFAB1ABB0A31960E171F0781F632E075
:1008B000431651040CF404C127E030E03C8B2B8B31
:1008C00041E050E05C834B836B807C80660C771C3E
:1008D00058864F828B819C818415950514F49887E6
:1008E0008F83A1E0B0E00B8802C0AA0FBB1F0A945F
:1008F000E2F7BC87AB8724E331E03A832983D12C2C
:10090000C12C4B815C8189859A85480F591F5E8770
:100910004D87AD81BE812B813C81A20FB31FB88B67
:10092000AF87E981FA812490E054F1093490298954
:100930003A89232B09F0CAC0422D4595E32DE19554
:100940005E2F55956D857E856C0D7D1D8F859889F3
:100950008C0D9D1D9E8B8D8BA985BA85AC0DBD1D03
:10096000ED81FE81EC0DFD1D8601B88FAF8BDB01A3
:100970008C91840270011124AD89BE892C915202A0
:10098000500111244701880C892C881C99081501F5
:10099000220C232C221C33088218E6FAEE24E0F8FD
:1009A000E80CA6FAAA24A0F8EA182402900111245F
:1009B0005802C00111245C01AA0CAB2CAA1CBB0874
:1009C0004901880C892C881C9908A80C26FB9927BA
:1009D00090F99A0D86FB882780F9890FA0800A2C50
:1009E000000CBB08B594A794AF89B88D2C91022E4A
:1009F000000C330B35952795922F9E19DB019C93A4
:100A00009A2D981BAD89BE899C932E0DAF89B88D08
:100A10002C938A0D8083060D171D660D771D2D8979
:100A20003E89260D371D3E8B2D8BA60DB71DB88F29
:100A3000AF8BE60DF71D041515050CF498CF3FEFAD
:100A4000C31AD30A49815A818B859C85480F591F47
:100A50005A834983AF81B885CA16DB060CF461CF8F
:100A60002B813C81C216D306FCF4A90121E030E0C1
:100A70000B8802C0220F331F0A94E2F7C6010B88CD
:100A800002C0880F991F0A94E2F78C5C9E4FFC010C
:100A90006491E054F109E491FFEFCF1ADF0A820F6D
:100AA000931FC416D5069CF34B895C8941505109AC
:100AB0005C8B4B8B7C826B82641475040CF404CFCA
:100AC00090E080E06896E2E10C94B40E6D857E853E
:100AD0006C0D7D1DEF85F889EC0DFD1D89859A85CE
:100AE0008C0D9D1D9E8B8D8BAD81BE81AC0DBD1D72
:100AF0008601F88FEF8BFB018081F22DF8029001C7
:100B00001124EF89F88D4081F32DF4027001112436
:100B10005901AA0CAB2CAA1CBB084701880C892CD4
:100B2000881C9908A81826FB222720F92A0DE6FA26
:100B3000EE24E0F82E19322D3402A0011124F8021F
:100B4000C00111247C01EE0CEF2CEE1CFF085A01B1
:100B5000AA0CAB2CAA1CBB08EA0C46FB442740F9A4
:100B60004E0D86FB882780F9840F4C91ED89FE8914
:100B70009081392F321BFB013083342F381BEF89D2
:100B8000F88D3083290FED89FE892083840F8C93A3
:100B9000060D171D660D771D2F89388D260D371D03
:100BA000388F2F8BE60DF71DFE8BED8BA60DB71D35
:100BB000041515050CF49FCF42CF8FEF9FEF82CF26
:100BC000B0E0A0E0E6EEF5E00C94A00E7C016A0136
:100BD0008B0101501109C1E0D0E0002E02C0CC0F02
:100BE000DD1F0A94E2F75C01AC0EBD1E41155105F4
:100BF00071F5C230D105E4F070E060E0D501F70195
:100C0000319621E030E09C9140814C9390832E5F9F
:100C10003F4F129632962C173D07ACF3C114D10406
:100C200039F0CB01CDB7DEB7EAE00C94BC0E1FC0A3
:100C300030E020E0A801B701C5010E94F603BC0125
:100C4000CB01CDB7DEB7EAE00C94BC0E10C09A0120
:100C5000A801BC01C5010E94F603BC01C230D10548
:100C60006CF6CB01CDB7DEB7EAE00C94BC0E219A4E
:100C70002998229A2A9823982B98209A2898289A7B
:100C800081E58CBD08958EBD0DB407FEFDCF8EB5F8
:100C90000895A5E2B0E0EFE4F6E00C949A0E8C0122
:100CA0004B01DC011696ED90FC901797F7019081AF
:100CB00018968C9144244394512C620101C0CC0CB1
:100CC0008A95EAF78C2D80958923808380E00E94A5
:100CD000430680E00E944306B82ED7018C918C29F0
:100CE0008C93F801E680F780D7019C9180856201A2
:100CF00001C0CC0C8A95EAF78C2D809589238C93C2
:100D000080E20E9443068B2D82600E944306F70119
:100D100080818C2980838FE697E10197F1F700C0ED
:100D20000000D8011696ED90FC901797F70190817E
:100D300018968C91620101C0CC0C8A95EAF78C2D33
:100D400080958923808380E00E94430680E00E9492
:100D50004306B82ED7018C918C298C93F801E6803C
:100D6000F780D7019C918085620101C0CC0C8A95E7
:100D7000EAF78C2D809589238C9380E20E944306AC
:100D80008B2D8E7F0E944306F70180818C29808302
:100D9000D8011696ED90FC901797F7019081189660
:100DA0008C91620101C0CC0C8A95EAF78C2D80955C
:100DB0008923808381E20E94430680E00E944306EB
:100DC000D7018C918C298C93F801E680F780D701AC
:100DD0009C918085620101C0CC0C8A95EAF78C2D2C
:100DE000809589238C9386E00E94430680E00E94D0
:100DF0004306B82EF70180818C298083D80116968E
:100E0000ED90FC901797F701908118968C916201F4
:100E100001C0CC0C8A95EAF78C2D809589238083BC
:100E200086E20E9443068B2D80610E944306D70113
:100E30008C918C298C9385E0E0E0F2E0DE019196C4
:100E400001900D928A95E1F7F80166807780D301D1
:100E50009C91808502C0440C551C8A95E2F7842D34
:100E6000809589238C9380E30E9443066E01B1E252
:100E7000CB0ED11C76015E01E6E2AE0EB11CD701AD
:100E80008D917D010E944306AE14BF04C1F7F301AA
:100E90008081482A408240E250E06FEF70E0CE014E
:100EA00001960E94D70ED8011696AD90BC90179768
:100EB000F501908118968C9121E030E0390101C054
:100EC000660C8A95EAF7862D80958923808380EACF
:100ED0000E944306AE014F5F5F4F7A01D7018D91AB
:100EE0007D010E944306CE14DF04C1F7F501808125
:100EF000682A6082D8011696ED90FC901797F7014A
:100F0000908118968C91CC24C394D12C560101C0A9
:100F1000AA0C8A95EAF78A2D80958923808380E040
:100F20000E94430680E00E944306B82ED7019C91A0
:100F30009A299C93F801E680F780D7018C919085DF
:100F400001C0CC0C9A95EAF79C2D909598239C9320
:100F500080E20E9443068B2D877F0E944306F701A3
:100F600080818C298083782CF0E68F16F9E09F062B
:100F70001CF030EA732E780CD8011696CD90DC90D8
:100F80001797F601908118968C91EE24E394F12C3A
:100F9000570102C0AA0CBB1C8A95E2F78A2D8095E6
:100FA0008923808385E20E944306872D0E944306A1
:100FB000D6018C918A298C93D8011396ED91FC91DE
:100FC0001497808115969C91970101C0220F9A95E4
:100FD000EAF7822B8083BAE3BA95F1F700C0D80113
:100FE0001396ED91FC911497208115968C9115978D
:100FF000A70102C0440F551F8A95E2F7CA018095E8
:10100000822380838FE99FE00197F1F700C0000001
:101010001396ED91FC911497808115969C911597EC
:10102000970101C0220F9A95EAF7822B80831696CA
:10103000CD90DC901797F601908118968C9102C0A4
:10104000EE0CFF1C8A95E2F78E2D80958923808314
:1010500083EE0E944306D6018C91E82AEC92A59675
:10106000E0E10C94B60E8DE480937C0088E88093D8
:101070007A0010927B0080917E008C6080937E00CD
:1010800084EC9AE00E947903C0919F03D091A00361
:1010900098818091A10301E010E001C0000F8A95C2
:1010A000EAF7802F80958923888380E20E94430697
:1010B0008AE70E9443068881082B08838FE697E120
:1010C0000197F1F700C0000060E679E089E993E05C
:1010D0000E94490678940DE614E0C1E0D0E0F0E209
:1010E0009F2E9FEFA9EFB0E09150A040B040E1F7F4
:1010F00000C000004091F1045091F204141615064E
:1011000024F52091ED043091EE04BA01685F7C4F24
:10111000E8E0F3E028503340C9018E0F9F1F8F771E
:10112000907897FF04C0019780689F6F019683595C
:101130009B4FDC018C918193E617F70769F770E00C
:1011400060E088E892E00E94D70E30E020E047E0BF
:1011500050E068E872E088E093E00E94F60344E122
:10116000C42E42E0D42E58E0E52E53E0F52E68E878
:1011700072E0EFEBAE2EE3E0BE2EF50115C0445059
:1011800080E0413240F0242F2052330BC901959565
:10119000879595958795408381831282339638E8A9
:1011A000C31632E0D306C1F1D6014D915D916D01B8
:1011B000D7012D917D01DB018D91BD01082E000C21
:1011C000990B97FF03C09195819591099595879506
:1011D000022E000C330B37FF03C0319521953109E6
:1011E00035952795280F391F322F2227330F569513
:1011F000542F442757954795420F531F452F552786
:10120000C6010297DC014D935C934930510508F00B
:10121000B6CF40E080E0BFCF20E230E0E09188032D
:10122000F0918903408180918A03BE0102C0660F5C
:10123000771F8A95E2F7CB01809584238083E09124
:101240008B03F0918C03408180918D03DE0102C0FD
:10125000AA0FBB1F8A95E2F7CD0180958423808376
:10126000E0918803F0918903808190918A03AE0117
:1012700001C0440F9A95EAF7842B808321503109ED
:1012800069F6AFEBB3E0CC90D12CF12CE12CE4EE7D
:10129000FE2A12968C911297E82A11968C9111973A
:1012A000D82A20E230E040E050E060E070E823C05F
:1012B000708080918D032E0102C0440C551C8A95CC
:1012C000E2F7C20187298083E0918803F0918903C6
:1012D000708080918A032E0102C0440C551C8A95AF
:1012E000E2F7C201872980837695679557954795E0
:1012F0002150310969F1E0918803F09189037080F0
:1013000080918A032E0102C0440C551C8A95E2F795
:10131000C20180958721808326013701442255220E
:1013200066227722E0918B03F0918C0345284628B2
:10133000472809F0BDCF708080918D032E0102C037
:10134000440C551C8A95E2F7C20180958721BBCFDA
:1013500013960A171B0709F096CF20E230E0E091C0
:101360008803F0918903408180918A03BE0102C005
:10137000660F771F8A95E2F7CB01809584238083DF
:10138000E0918B03F0918C03808190918D03AE01ED
:1013900001C0440F9A95EAF7842B8083E09188037B
:1013A000F0918903808190918A03AE0101C0440FBE
:1013B0009A95EAF7842B80832150310981F6809138
:1013C000810590918205181619060CF08ACE0197B6
:1013D000909382058093810520917D0530917E0553
:1013E000C90101968F77907897FD3AC290937E0558
:1013F00080937D052D503B4FF90182858D3209F494
:10140000E2C18F3309F42BC18B3209F4DBC020E237
:1014100030E0E0918803F0918903408180918A0354
:101420002E0102C0440C551C8A95E2F7C20180953A
:1014300084238083E0918B03F0918C034081809121
:101440008D03BE0102C0660F771F8A95E2F7CB01BC
:10145000809584238083E0918803F09189038081C3
:1014600090918A03AE0101C0440F9A95EAF7842B4C
:1014700080832150310969F6F5018281C080D12C29
:10148000F12CE12CF4EEFF2AE82AF5018181D82A1B
:1014900020E230E040E050E060E070E823C070807F
:1014A00080918D032E0102C0440C551C8A95E2F7F1
:1014B000C20187298083E0918803F09189037080BD
:1014C00080918A032E0102C0440C551C8A95E2F7D4
:1014D000C201872980837695679557954795215056
:1014E000310969F1E0918803F0918903708080915E
:1014F0008A032E0102C0440C551C8A95E2F7C201F2
:101500008095872180832601370144225522662257
:101510007722E0918B03F0918C03452846284728D9
:1015200009F0BDCF708080918D032E0102C0440C64
:10153000551C8A95E2F7C20180958721BBCF23E035
:10154000A20EB11CAA16BB0609F096CF20E230E02D
:10155000E0918803F0918903408180918A03BE0164
:1015600002C0660F771F8A95E2F7CB01809584232E
:101570008083E0918B03F0918C03808190918D03A7
:10158000AE0101C0440F9A95EAF7842B8083E09165
:101590008803F0918903808190918A03AE0101C094
:1015A000440F9A95EAF7842B80832150310981F604
:1015B0007FEF81EE94E0715080409040E1F700C0F1
:1015C00000008FCD8091B4039091B5030196837094
:1015D000907897FF04C001978C6F9F6F019690934E
:1015E000B5038093B4035091AB034091AC032091B9
:1015F000AD032E0102C0440C551C2A95E2F792015E
:10160000815F9D4FFC018081E52FF42F81FFD7C0C2
:101610008291282B2083E091B403F091B503E15F20
:10162000FD4F8081E091AE03F091AF0380FFBAC01F
:1016300082919091B0039E0101C0220F9A95EAF722
:10164000822B80838FE39FE10197F1F700C00000B8
:1016500090926A0490926B0490926C04D8CE10928F
:10166000B5031092B403E091AB03F091AC03229167
:101670008091AD032E0102C0440C551C8A95E2F7FF
:10168000C201809582238083E091B403F091B50379
:10169000E15FFD4F8081E091AE03F091AF0380FFE9
:1016A0006DC082919091B0039E0101C0220F9A9566
:1016B000EAF7822B80838FE39FE10197F1F700C067
:1016C0000000EFE1FEE43197F1F700C00000E09187
:1016D000AB03F091AC033297808190E02091AD0391
:1016E00002C0959587952A95E2F780FF10C0E0919A
:1016F000AE03F091AF033297808190E02091B00368
:1017000002C0959587952A95E2F780FD44C080E058
:101710009FEF9093BF038093C0031092C103E091A9
:10172000B903F091BA033297808190E02091BB0316
:1017300002C0959587952A95E2F780FF31C080E435
:101740008093C2038093C3038093C403E091B603E4
:10175000F091B7033297808190E02091B80302C0E6
:10176000959587952A95E2F780FF18C080E48093CD
:10177000C5038093C6038093C70349CE229180910D
:10178000B003AE0102C0440F551F8A95E2F7CA01AB
:10179000809582238FCF8FEF91E0BBCF80E0E7CFA2
:1017A00080E0CECF22918091B0032E0102C0440C84
:1017B000551C8A95E2F7C2018095822342CF82911F
:1017C0002095282327CF8091B4039091B5030396E9
:1017D0008370907897FF04C001978C6F9F6F01967C
:1017E0009093B5038093B4035091AB034091AC0345
:1017F0002091AD03FE0102C0EE0FFF1F2A95E2F714
:101800009F01815F9D4FFC018081E52FF42F81FFB7
:1018100039C08291282B2083E091B403F091B50365
:10182000E15FFD4F8081E091AE03F091AF0380FF57
:101830001CC082919091B0039E0101C0220F9A9525
:10184000EAF7822B80838FE39FE10197F1F700C0D5
:1018500000009092BF039092C0039092C103D7CD35
:10186000019780689F6F0196C1CD22918091B0034E
:101870002E0102C0440C551C8A95E2F7C2018095E6
:101880008223E0CF829120952823C5CFCF92DF928B
:10189000FF920F931F93CF93DF938AE0E5E0F2E08E
:1018A000A3EFB4E001900D928A95E1F710927E05C6
:1018B00010927D051092800510927F05109282058E
:1018C00010928105E091FB04F091FC0489E190E025
:1018D00091838083E091F704F091F80488E9808394
:1018E000E091F904F091FA0486E0808383EF94E0BC
:1018F00090938405809383051092EE041092ED047A
:101900001092F0041092EF041092F2041092F1047D
:10191000EFEBF3E0108211821282339644E0ED3651
:10192000F407C1F722E230E03093BD032093BC03FB
:1019300085E08093BE030D98E091BC03F091BD0358
:10194000408181E090E04F7D40833093BA03209343
:10195000B90347E04093BB030F98E091B903F091BE
:10196000BA0340814F7740833093B7032093B60387
:1019700023E02093B8030B98E091B603F091B703EE
:101980002081277F20832091B9033091BA034091B1
:10199000BB032093AB033093AC034093AD03209182
:1019A000B6033091B7034091B8032093AE03309350
:1019B000AF034093B0032091BC033091BD0340912D
:1019C000BE032093B1033093B2034093B30310924C
:1019D000B5031092B403E091BC03F091BD034081C4
:1019E0002091BE03BC0102C0660F771F2A95E2F763
:1019F0009B01209524232083E091B903F091BA0341
:101A000040812091BB036C0102C0CC0CDD1C2A95E7
:101A1000E2F79601209524232083E091B603F0910C
:101A2000B70340812091B803BC0102C0660F771F45
:101A30002A95E2F79B01209524232083E091BC03A3
:101A4000F091BD0322913091BE03AC0101C0440F5F
:101A50003A95EAF7242B2083E091B403F091B50383
:101A6000E15FFD4F208121FF25C12091AB03309123
:101A7000AC03F901319740815091AD0301C0880F4B
:101A80005A95EAF7842B21503109F9018083E091BE
:101A9000B403F091B503E15FFD4F80812091AE0367
:101AA0003091AF03F901319780FF14C1808190918B
:101AB000B00341E050E001C0440F9A95EAF7842B4F
:101AC00021503109F90180838FE39FE10197F1F7FC
:101AD00000C000002BE031E03093A9032093A8035D
:101AE0001092AA0380910A018E7F80930A01E091EF
:101AF000A803F091A9038081C1E0D0E08E7F8083AC
:101B00003093A6032093A503FF24F394F092A70338
:101B100080910A018D7F80930A01E091A503F091E5
:101B2000A60380818D7F808305E210E01093A303DC
:101B30000093A2031092A4032098E091A203F091D5
:101B4000A30380818E7F8083A091A8038091A90345
:101B50009091AA037091A5036091A6035091A703E9
:101B60004091A2033091A3032091A403A093990371
:101B700080939A0390939B0370939C0360939D03BF
:101B800050939E0340939F033093A0032093A1039F
:101B9000EA2FF82FA2916E0102C0CC0CDD1C9A95A1
:101BA000E2F7C60180958A238083E72FF62F829182
:101BB000BE0101C0660F5A95EAF7862B8083E42F99
:101BC000F32F8291AE0102C0440F551F2A95E2F710
:101BD000842B80830E94370610939703009396030B
:101BE00087E080939803279AE0919603F0919703FA
:101BF00080818F77808322E230E0309394032093BA
:101C0000930310929503089AE0919303F091940343
:101C100080818E7F80833093910320939003F09294
:101C20009203099AE0919003F091910380818D7F56
:101C300080838091930390919403A0919503809366
:101C4000880390938903A0938A03809190039091D5
:101C50009103A091920380938B0390938C03A093A4
:101C60008D038AE390E090938F0380938E03E0913D
:101C70009303F09194038291909195039E0101C08A
:101C8000220F9A95EAF7822B8083E0919003F091DE
:101C9000910382919091920301C0CC0F9A95EAF73B
:101CA000C82BC083DF91CF911F910F91FF90DF90E0
:101CB000CF9008952091AB033091AC03F901319797
:101CC00040815091AD0301C0880F5A95EAF7809585
:101CD0008423D9CE40815091B00381E090E001C0CF
:101CE000880F5A95EAF780958423EACEA1E21A2E4E
:101CF000AA1BBB1BFD010DC0AA1FBB1FEE1FFF1FB0
:101D0000A217B307E407F50720F0A21BB30BE40BFF
:101D1000F50B661F771F881F991F1A9469F7609546
:101D20007095809590959B01AC01BD01CF01089500
:101D30002F923F924F925F926F927F928F929F92DB
:101D4000AF92BF92CF92DF92EF92FF920F931F93C9
:101D5000CF93DF93CDB7DEB7CA1BDB0B0FB6F8947A
:101D6000DEBF0FBECDBF19942A88398848885F84AA
:101D70006E847D848C849B84AA84B984C884DF802B
:101D8000EE80FD800C811B81AA81B981CE0FD11D0F
:101D90000FB6F894DEBF0FBECDBFED010895EE0F74
:101DA000FF1F881F8BBF0790F691E02D1994DC016F
:101DB00001C06D9341505040E0F70895F894FFCF73
:101DC000FFFFFFFFFFC600C000C100C200C400004B
:041DD0000203010009
:00000001FF
