:100000000C94DF000C9410010C9410010C9410015E
:100010000C9410010C9410010C9410010C9410011C
:100020000C9410010C9410010C9410010C9410010C
:100030000C9410010C9410010C9410010C941001FC
:100040000C9410010C9410010C9410010C941001EC
:100050000C94E6020C9410010C9410010C94100105
:100060000C9410010C9412010C9410010C941001CA
:100070000C9410010C9459030C9410010C94100171
:100080000C9410010C9410010C9410010C941001AC
:100090000C9487010C9410010C9410010C94100125
:1000A0000C9410010C9410010C9410010C9410018C
:1000B0000C9410010C9410010C9410010C9410017C
:1000C0000C9410010C9410010C9410010C94FC0180
:1000D0000C9410010C9410010C9471020C941001FA
:1000E0000C9410010C9400040C9455100C942207ED
:1000F0000C944F100C9453060C94EA050003060967
:100100000C0F1215181C1F2225282B2E30333639C0
:100110003C3F414447494C4E515355585A5C5E60F0
:10012000626466686A6C6D6F7072737576777879E1
:100130007A7B7C7C7D7E7E7F7F7F7F7F7F7F7F7FE2
:100140007F7F7E7E7D7C7C7B7A7978777675737213
:10015000706F6D6C6A68666462605E5C5A58555375
:10016000514E4C494744413F3C393633302E2B28C1
:1001700025221F1C1815120F0C09060300FDFAF7A3
:10018000F4F1EEEBE8E4E1DEDBD8D5D2D0CDCAC79E
:10019000C4C1BFBCB9B7B4B2AFADABA8A6A4A2A04E
:1001A0009E9C9A9896949391908E8D8B8A8988873D
:1001B0008685848483828281818181814F1011248C
:1001C0001FBECFEFD1E2DEBFCDBF00E00CBF12E01B
:1001D000A0E0B2E0ECEDF5E200E00BBF02C007905A
:1001E0000D92A431B107D9F725E0A4E1B2E001C036
:1001F0001D92AB38B207E1F710E0CFEDD0E000E0A0
:1002000006C021970109802FFE010E94DD12CE3D1C
:10021000D10780E00807A9F70E941C070C94EC1294
:100220000C9400001F920F920FB60F9211240BB680
:100230000F922F933F934F935F936F938F939F935F
:10024000AF93BF93CF93DF93EF93FF93E091830539
:10025000F09184053097A9F1A281B3818C9187FF39
:10026000FDCFA081B1816C91EF01C257DF4F488172
:100270005981DF01A457BF4F2D913C911197C901BE
:1002800001968F77907897FD3AC0403851056CF110
:1002900040E850E0598348832E0F3F1FE9016A87E9
:1002A0008D939C93E657FF4F8081918101968F77C4
:1002B000907897FF04C0019780689F6F01969183A3
:1002C0008083FF91EF91DF91CF91BF91AF919F918B
:1002D0008F916F915F914F913F912F910F900BBE36
:1002E0000F900FBE0F901F9018954F5F5F4F59836F
:1002F0004883E20FF31F62878D939C93E2CF0197AF
:1003000080689F6F01964038510514F6EECF1F921A
:100310000F920FB60F9211240BB60F922F933F93AB
:100320004F935F936F938F939F93AF93BF93CF93AD
:10033000DF93EF93FF93E0918505F0918605309769
:10034000A9F1A281B3818C9187FFFDCFA081B181FA
:100350006C91EF01C257DF4F48815981DF01A457EB
:10036000BF4F2D913C911197C90101968F779078DD
:1003700097FD3AC0403851056CF140E850E0598390
:1003800048832E0F3F1FE9016A878D939C93E657A0
:10039000FF4F8081918101968F77907897FF04C0FD
:1003A000019780689F6F019691838083FF91EF9101
:1003B000DF91CF91BF91AF919F918F916F915F919D
:1003C0004F913F912F910F900BBE0F900FBE0F904A
:1003D0001F9018954F5F5F4F59834883E20FF31FBB
:1003E00062878D939C93E2CF019780689F6F0196FF
:1003F0004038510514F6EECF1F920F920FB60F92B0
:1004000011240BB60F922F933F934F935F936F93EB
:100410008F939F93AF93BF93CF93DF93EF93FF930C
:10042000E0918705F09188053097A9F1A281B38109
:100430008C9187FFFDCFA081B1816C91EF01C257F4
:10044000DF4F48815981DF01A457BF4F2D913C9167
:100450001197C90101968F77907897FD3AC040387F
:1004600051056CF140E850E0598348832E0F3F1F3F
:10047000E9016A878D939C93E657FF4F80819181B4
:1004800001968F77907897FF04C0019780689F6FDF
:10049000019691838083FF91EF91DF91CF91BF917E
:1004A000AF919F918F916F915F914F913F912F915C
:1004B0000F900BBE0F900FBE0F901F9018954F5FBF
:1004C0005F4F59834883E20FF31F62878D939C939C
:1004D000E2CF019780689F6F01964038510514F66E
:1004E000EECF1F920F920FB60F9211240BB60F9200
:1004F0002F933F934F935F936F938F939F93AF93FC
:10050000BF93CF93DF93EF93FF93E0918905F09131
:100510008A053097A9F1A281B3818C9187FFFDCF25
:10052000A081B1816C91EF01C257DF4F48815981A1
:10053000DF01A457BF4F2D913C911197C90101963E
:100540008F77907897FD3AC0403851056CF140E8BC
:1005500050E0598348832E0F3F1FE9016A878D932E
:100560009C93E657FF4F8081918101968F77907819
:1005700097FF04C0019780689F6F019691838083E5
:10058000FF91EF91DF91CF91BF91AF919F918F91AB
:100590006F915F914F913F912F910F900BBE0F90F4
:1005A0000FBE0F901F9018954F5F5F4F5983488380
:1005B000E20FF31F62878D939C93E2CF01978068CF
:1005C0009F6F01964038510514F6EECF1F920F929F
:1005D0000FB60F9211240BB60F922F933F934F93A8
:1005E0005F936F937F938F939F93EF93FF934091CC
:1005F00078005091790056954795569547956091AA
:10060000F1047091F2042091EF043091F004C901DB
:1006100001968F77907897FF04C0019780689F6F4D
:100620000196603871058CF160E870E07093F20417
:100630006093F10423593B4FF90140839093F004F8
:100640008093EF048091ED049091EE0401968F77F2
:10065000907897FD29C09093EE048093ED048091EB
:100660007A00806480937A00FF91EF919F918F913F
:100670007F916F915F914F913F912F910F900BBEA2
:100680000F900FBE0F901F9018956F5F7F4F709364
:10069000F2046093F10423593B4FF9014083909396
:1006A000F0048093EF04DBCF019780689F6F019681
:1006B000D2CF1F920F920FB60F9211240F900FBE40
:1006C0000F901F90189597FF089591958195910926
:1006D0000895EAE7F0E080818064808308958DE4E6
:1006E00080937C0088E880937A0010927B00EEE78C
:1006F000F0E080818C608083089520916F002160FC
:1007000020936F00109280009C01220F331F8E37C0
:100710009105BCF0032E000C440B550B60E074E215
:1007200084EF90E00E94841230938700209386002B
:1007300080E18093810080918100816080938100BD
:10074000089581319105ECF0220F331F220F331FE2
:10075000220F331F032E000C440B550B60E074E294
:1007600084EF90E00E9484123093870020938600EB
:1007700080E180938100809181008260809381007C
:10078000089584309105ECF09C013695322F222794
:1007900037952795032E000C440B550B60E074E24F
:1007A00084EF90E00E9484123093870020938600AB
:1007B00080E180938100809181008360809381003B
:1007C0000895322F2227032E000C440B550B60E0B6
:1007D00074E284EF90E00E948412309387002093AB
:1007E000860080E180938100809181008460809305
:1007F00081000895A8E1B0E0E0E0F4E00C94A612D6
:100800009A8789877E836D833A8B298B81E090E07C
:100810002C0102C0440C551C4A95E2F721E0421617
:1008200052060CF0CEC1B2016150710916161706BE
:100830000CF041C0A985BA851196ED81FE813196F3
:100840000D811E81040D151D30E020E05D01C9847D
:10085000DA84ED80FE80DF01AE19BF09C2019595F3
:100860008795AC01420F531F64177507C4F3AC01A1
:100870004150510924233523280F391FA217B307EC
:100880009CF4D5018C914601820E931ED4019C915B
:10089000D5019C93D4018C9380814701820E931ED5
:1008A000D4019C9190838C93BFEFAB1ABB0A319615
:1008B0000E171F0781F632E0431651040CF404C1F1
:1008C00027E030E03C8B2B8B41E050E05C834B8396
:1008D0006B807C80660C771C58864F828B819C8154
:1008E0008415950514F498878F83A1E0B0E00B88F8
:1008F00002C0AA0FBB1F0A94E2F7BC87AB872CE3A8
:1009000031E03A832983D12CC12C4B815C818985CC
:100910009A85480F591F5E874D87AD81BE812B8117
:100920003C81A20FB31FB88BAF87E981FA81249075
:10093000E054F109349029893A89232B09F0CAC07F
:10094000422D4595E32DE1955E2F55956D857E856C
:100950006C0D7D1D8F8598898C0D9D1D9E8B8D8BBB
:10096000A985BA85AC0DBD1DED81FE81EC0DFD1D87
:100970008601B88FAF8BDB018C918402700111244A
:10098000AD89BE892C915202500111244701880C77
:10099000892C881C99081501220C232C221C330851
:1009A0008218E6FAEE24E0F8E80CA6FAAA24A0F8E9
:1009B000EA182402900111245802C00111245C019C
:1009C000AA0CAB2CAA1CBB084901880C892C881CDA
:1009D0009908A80C26FB992790F99A0D86FB882781
:1009E00080F9890FA0800A2C000CBB08B594A7944D
:1009F000AF89B88D2C91022E000C330B35952795BD
:100A0000922F9E19DB019C939A2D981BAD89BE896C
:100A10009C932E0DAF89B88D2C938A0D8083060D83
:100A2000171D660D771D2D893E89260D371D3E8BBE
:100A30002D8BA60DB71DB88FAF8BE60DF71D0415D6
:100A400015050CF498CF3FEFC31AD30A49815A8198
:100A50008B859C85480F591F5A834983AF81B88580
:100A6000CA16DB060CF461CF2B813C81C216D3067B
:100A7000FCF4A90121E030E00B8802C0220F331FF3
:100A80000A94E2F7C6010B8802C0880F991F0A94E6
:100A9000E2F7845C9E4FFC016491E054F109E4911B
:100AA000FFEFCF1ADF0A820F931FC416D5069CF3FF
:100AB0004B895C89415051095C8B4B8B7C826B82EA
:100AC000641475040CF404CF90E080E06896E2E1D1
:100AD0000C94C2126D857E856C0D7D1DEF85F889A5
:100AE000EC0DFD1D89859A858C0D9D1D9E8B8D8B32
:100AF000AD81BE81AC0DBD1D8601F88FEF8BFB0172
:100B00008081F22DF80290011124EF89F88D408147
:100B1000F32DF402700111245901AA0CAB2CAA1C6C
:100B2000BB084701880C892C881C9908A81826FB4B
:100B3000222720F92A0DE6FAEE24E0F82E19322DAC
:100B40003402A0011124F802C00111247C01EE0C32
:100B5000EF2CEE1CFF085A01AA0CAB2CAA1CBB08F8
:100B6000EA0C46FB442740F94E0D86FB882780F9A6
:100B7000840F4C91ED89FE899081392F321BFB0146
:100B80003083342F381BEF89F88D3083290FED899E
:100B9000FE892083840F8C93060D171D660D771D2B
:100BA0002F89388D260D371D388F2F8BE60DF71DB9
:100BB000FE8BED8BA60DB71D041515050CF49FCF0C
:100BC00042CF8FEF9FEF82CFB0E0A0E0EAEEF5E0FA
:100BD0000C94AE127C016A018B0101501109C1E035
:100BE000D0E0002E02C0CC0FDD1F0A94E2F75C01BA
:100BF000AC0EBD1E4115510571F5C230D105E4F0B2
:100C000070E060E0D501F701319621E030E09C9181
:100C100040814C9390832E5F3F4F129632962C1753
:100C20003D07ACF3C114D10439F0CB01CDB7DEB729
:100C3000EAE00C94CA121FC030E020E0A801B7011E
:100C4000C5010E94FA03BC01CB01CDB7DEB7EAE0D3
:100C50000C94CA1210C09A01A801BC01C5010E94DF
:100C6000FA03BC01C230D1056CF6CB01CDB7DEB7BB
:100C7000EAE00C94CA12219A2998229A2A98239879
:100C80002B98209A2898289A80E58CBD08958EBDCF
:100C90000DB407FEFDCF8EB50895B0E0A0E0E3E50A
:100CA000F6E00C94B012EC018FE19EE40197F1F7AD
:100CB00000C00000EE80FF80F7019081888501E090
:100CC00010E0680101C0CC0C8A95EAF78C2D809564
:100CD0008923808384E20E9447068FE40E944706AE
:100CE000F70180818C298083EE80FF80F70190815D
:100CF0008885680101C0CC0C8A95EAF78C2D809517
:100D00008923808386E20E94470686E00E94470688
:100D1000F70180818C298083EE80FF80F70190812C
:100D20008885680101C0CC0C8A95EAF78C2D8095E6
:100D30008923808380E20E9447068CE70E94470651
:100D4000F70180818C298083EE80FF80F7019081FC
:100D50008885680101C0CC0C8A95EAF78C2D8095B6
:100D6000892380838CE30E94470680E00E94470627
:100D7000F70180818C298083EE80FF80F7019081CC
:100D80008885680101C0CC0C8A95EAF78C2D809586
:100D90008923808387E20E94470680E70E944706F6
:100DA000F70180818C298083EE80FF80F70190819C
:100DB0008885680101C0CC0C8A95EAF78C2D809556
:100DC0008923808385E20E9447068CE40E944706BF
:100DD000F70180818C298083EE80FF80F70190816C
:100DE0008885680102C0CC0CDD1C8A95E2F78C2D49
:100DF00080958923808382EE0E944706F7018081D7
:100E00008C298083EE80FF80F7019081888502C065
:100E1000000F111F8A95E2F7802F80958923808328
:100E200081EE0E944706F7018081082B0083CDB731
:100E3000DEB7E8E00C94CC12A2E2B0E0E2E2F7E028
:100E40000C94A6128DE480937C0088E880937A004D
:100E500010927B0080917E008C6080937E0084ECF9
:100E60009AE00E947D0389E993E00E944D06E0909C
:100E70009F03F090A003D7019C918091A10301E012
:100E800010E0680101C0CC0C8A95EAF78C2D8095A2
:100E900089238C9382E00E94470680E00E944706E7
:100EA000B82EF70180818C298083E0909F03F09019
:100EB000A003D7019C918091A103680101C0CC0CD3
:100EC0008A95EAF78C2D809589238C9382E20E9483
:100ED00047068B2D82600E944706F70180818C298E
:100EE0008083E0909F03F090A003D7019C918091B4
:100EF000A103680101C0CC0C8A95EAF78C2D80957E
:100F000089238C9381E00E94470680E00E94470677
:100F1000B82EF70180818C298083E0909F03F090A8
:100F2000A003D7019C918091A103680101C0CC0C62
:100F30008A95EAF78C2D809589238C9381E20E9413
:100F400047068B2D82600E944706F70180818C291D
:100F50008083E0909F03F090A003D7019C91809143
:100F6000A103680101C0CC0C8A95EAF78C2D80950D
:100F700089238C9382E30E94470680E20E94470601
:100F8000F70180818C298083E0909F03F090A0037B
:100F9000D7019C918091A103680101C0CC0C8A9576
:100FA000EAF78C2D809589238C9380E00E94470678
:100FB00080E00E944706B82EF70180818C2980834B
:100FC000E0909F03F090A003D7019C918091A10332
:100FD000680101C0CC0C8A95EAF78C2D8095892395
:100FE0008C9380E20E9447068B2D81600E94470609
:100FF000F70180818C298083E0909F03F090A0030B
:10100000D7019C918091A103680101C0CC0C8A9505
:10101000EAF78C2D809589238C938BE20E944706FA
:101020000AE012E0BFE0AB2EB2E0BB2EF8018191E6
:101030008F010E944706A016B106C1F7D7018C9117
:101040008C298C93E0919C03F0919D038081909179
:101050009E0301E010E0980101C0220F9A95EAF783
:10106000822B8083E0909F03F090A003F701908192
:101070008091A103680101C0CC0C8A95EAF78C2D00
:1010800080958923808380E00E94470680E00E944B
:101090004706B82ED7018C918C298C93E0909F0342
:1010A000F090A003F70190818091A103680101C035
:1010B000CC0C8A95EAF78C2D80958923808380E279
:1010C0000E9447068B2D83600E944706D7018C91B2
:1010D0008C298C93E0909F03F090A003F7019081FE
:1010E0008091A103680101C0CC0C8A95EAF78C2D90
:1010F00080958923808387E20E94470680E70E94CB
:101100004706D7018C918C298C93E0909F03F09037
:10111000A003F70190818091A103680101C0CC0C6C
:101120008A95EAF78C2D80958923808382EE0E9430
:101130004706D7018C918C298C93E0909F03F09007
:10114000A003F70190818091A103680101C0CC0C3C
:101150008A95EAF78C2D80958923808381EE0E9401
:101160004706D7018C918C298C93E0919C03F091D8
:101170009D03808190919E0301C0000F9A95EAF72C
:10118000082B0083E7E0F2E03197F1F700C00000A0
:10119000789401E010E0F0E27F2EA0E46A2EFFEFE9
:1011A00029EF30E0F15020403040E1F700C000006E
:1011B0004091F1045091F2041416150624F5209183
:1011C000ED043091EE04BA01685F7C4FE8E0F3E093
:1011D00028503340C9018E0F9F1F8F77907897FF5B
:1011E00004C0019780689F6F019683599B4FDC0173
:1011F0008C9181936E177F0769F770E060E088E853
:1012000092E00E94E51230E020E047E050E068E81C
:1012100072E088E093E00E94FA0344E1C42E42E0C9
:10122000D42E58E0E52E53E0F52E68E872E0EFEB9F
:101230008E2EE3E09E2EF40115C0445080E0413232
:1012400040F0242F2052330BC90195958795959531
:101250008795408381831282339638E8C31632E043
:10126000D306C1F1D6014D915D916D01D7012D914C
:101270007D01DB018D91BD01082E000C990B97FFBC
:1012800003C091958195910995958795022E000C43
:10129000330B37FF03C031952195310935952795DB
:1012A000280F391F322F2227330F5695542F4427EA
:1012B00057954795420F531F452F5527C601029753
:1012C000DC014D935C934930510508F0B6CF40E006
:1012D00080E0BFCF20E230E0E0918803F091890305
:1012E000408180918A03B80102C0660F771F8A95FA
:1012F000E2F7CB01809584238083E0918B03F0910A
:101300008C03408180918D03D80102C0AA0FBB1FBE
:101310008A95E2F7CD01809584238083E09188034C
:10132000F0918903808190918A03A80101C0440F44
:101330009A95EAF7842B80832150310969F62FEBC7
:10134000A22E23E0B22EF501C080D12CF12CE12C8D
:10135000F4EEFF2AD50112968C911297E82A119685
:101360008C91D82A20E230E040E050E060E070E864
:1013700023C0A08180918D03280102C0440C551C1C
:101380008A95E2F7C2018A2B8083E0918803F0916D
:101390008903A08180918A03280102C0440C551C56
:1013A0008A95E2F7C2018A2B8083769567955795D7
:1013B00047952150310969F1E0918803F091890343
:1013C000A08180918A03280102C0440C551C8A9593
:1013D000E2F7C20180958A238083DB01CA018C2158
:1013E0009D21AE21BF21E0918B03F0918C03892BCD
:1013F0008A2B8B2B09F0BDCFA08180918D03280112
:1014000002C0440C551C8A95E2F7C20180958A23DC
:10141000BBCF23E0A20EB11C3DE6A31634E0B30619
:1014200009F091CF20E230E0E0918803F091890348
:10143000408180918A03B80102C0660F771F8A95A8
:10144000E2F7CB01809584238083E0918B03F091B8
:101450008C03808190918D03A80101C0440F9A955F
:10146000EAF7842B8083E0918803F09189038081DF
:1014700090918A03A80101C0440F9A95EAF7842B42
:1014800080832150310981F68091810590918205F8
:10149000181619060CF0B1C201979093820580933B
:1014A000810520917D0530917E05C90101968F77D8
:1014B000907897FD9DC290937E0580937D052D5079
:1014C0003B4FD9011A968C9189838D3209F4DBC286
:1014D0008F3309F4EDC18B3209F425C190E487FF05
:1014E00090E09093BF039093C0039093C10390E466
:1014F00086FF90E09093C2039093C3039093C4033C
:1015000090E485FF90E09093C5039093C603909379
:10151000C70390E484FF90E09093C8039093C903BD
:101520009093CA0390E483FF90E09093CB03909351
:10153000CC039093CD0390E482FF90E09093CE0390
:101540009093CF039093D00390E481FF90E0909329
:10155000D1039093D2039093D30380FFE2C080E441
:101560008093D4038093D5038093D60320E230E0A8
:10157000E0918803F0918903408180918A032801DA
:1015800002C0440C551C8A95E2F7C2018095842361
:101590008083E0918B03F0918C03408180918D03D7
:1015A000B80102C0660F771F8A95E2F7CB018095DC
:1015B00084238083E0918803F09189038081909156
:1015C0008A03A80101C0440F9A95EAF7842B80830F
:1015D0002150310969F6D401CC90D12CF12CE12CA9
:1015E000B4EEFB2AF4018281E82A8181D82A20E224
:1015F00030E040E050E060E070E823C0A0818091DE
:101600008D03280102C0440C551C8A95E2F7C201E3
:101610008A2B8083E0918803F0918903A0818091D7
:101620008A03280102C0440C551C8A95E2F7C201C6
:101630008A2B808376956795579547952150310978
:1016400069F1E0918803F0918903A08180918A0378
:10165000280102C0440C551C8A95E2F7C20180950E
:101660008A238083DB01CA018C219D21AE21BF2109
:10167000E0918B03F0918C03892B8A2B8B2B09F043
:10168000BDCFA08180918D03280102C0440C551C60
:101690008A95E2F7C20180958A23BBCF23E0820EB0
:1016A000911CA814B90409F096CF20E230E0E09133
:1016B0008803F0918903408180918A03B80102C0B8
:1016C000660F771F8A95E2F7CB018095842380838C
:1016D000E0918B03F0918C03808190918D03A801A0
:1016E00001C0440F9A95EAF7842B8083E091880328
:1016F000F0918903808190918A03A80101C0440F71
:101700009A95EAF7842B80832150310981F67FEF87
:1017100089EF90E0715080409040E1F700C00000F8
:101720003ECD80E01DCF8091B4039091B50301962A
:101730008370907897FDFBC29093B5038093B403B8
:101740005091AB034091AC032091AD03D80102C08E
:10175000AA0FBB1F2A95E2F79D01815F9D4FFC01F7
:101760008081E52FF42F81FFD9C28291282B20831D
:10177000E091B403F091B503E15FFD4F8081E0910A
:10178000AE03F091AF0380FFBCC282919091B00391
:10179000980101C0220F9A95EAF7822B80838FE38C
:1017A0009FE10197F1F700C000008091B403909190
:1017B000B50301968370907897FDB4C29093B503FA
:1017C0008093B403815F9D4FDC018C91E091AB036A
:1017D000F091AC0381FF88C282919091AD03980192
:1017E00001C0220F9A95EAF7822B8083E091B4031F
:1017F000F091B503E15FFD4F8081E091AE03F09180
:10180000AF0380FF64C282919091B003980101C040
:10181000220F9A95EAF7822B80838FE39FE101974D
:10182000F1F700C000008091B4039091B5030196D8
:101830008370907897FD85C29093B5038093B4032D
:10184000815F9D4FDC018C91E091AB03F091AC0383
:1018500081FF30C282919091AD03980101C0220FA7
:101860009A95EAF7822B8083E091B403F091B50357
:10187000E15FFD4F8081E091AE03F091AF0380FF07
:10188000C7C182919091B003980101C0220F9A952F
:10189000EAF7822B80838FE39FE10197F1F700C085
:1018A000000070926A0470926B0470926C045ECEB9
:1018B0001092B5031092B403E091AB03F091AC0326
:1018C00022918091AD03D80102C0AA0FBB1F8A9557
:1018D000E2F7CD01809582238083E091B403F091FB
:1018E000B503E15FFD4F8081E091AE03F091AF035E
:1018F00080FF6DC082919091B003980101C0220FCA
:101900009A95EAF7822B80838FE39FE10197F1F7A5
:1019100000C00000AFE1BEE41197F1F700C0000085
:10192000E091AB03F091AC033297808190E020917D
:10193000AD0302C0959587952A95E2F780FF10C008
:10194000E091AE03F091AF033297808190E0209157
:10195000B00302C0959587952A95E2F780FD92C362
:1019600080E09FEF9093BF038093C0031092C10368
:10197000E091B903F091BA033297808190E0209111
:10198000BB0302C0959587952A95E2F780FF2EC08C
:1019900080E48093C2038093C3038093C403E091E7
:1019A000B603F091B7033297808190E02091B8039D
:1019B00002C0959587952A95E2F780FF15C080E4CF
:1019C0008093C5038093C6038093C703CFCD229134
:1019D0008091B003280102C0440C551C8A95E2F79F
:1019E000C201809582238FCF80E0EACF80E0D1CF03
:1019F000019780689F6F01965ECDE0909F03F09005
:101A0000A003D7019C918091A103680101C0CC0C77
:101A10008A95EAF78C2D809589238C9387E00E9424
:101A2000470680E00E944706F7019081C92AC082DC
:101A300086FFB5CB80918105909182051816190615
:101A40000CF42ACDE0909F03F090A003F701908161
:101A50008091A103680101C0CC0C8A95EAF78C2D16
:101A600080958923808387E00E94470680E00E945A
:101A70004706D7019C91C92ACC9286FD71C1898104
:101A80008D3209F025CD8091B4039091B503039672
:101A90008370907897FD50C19093B5038093B40301
:101AA0005091AB034091AC032091AD03D80102C02B
:101AB000AA0FBB1F2A95E2F79D01815F9D4FFC0194
:101AC0008081E52FF42F81FFF1C08291282B2083A4
:101AD000E091B403F091B503E15FFD4F8081E091A7
:101AE000AE03F091AF0380FFD4C082919091B00318
:101AF000980101C0220F9A95EAF7822B80838FE329
:101B00009FE10197F1F700C000008091B40390912C
:101B1000B50303968370907897FD1DC19093B5032C
:101B20008093B403815F9D4FDC018C91E091AB0306
:101B3000F091AC0381FFA0C082919091AD03980118
:101B400001C0220F9A95EAF7822B8083E091B403BB
:101B5000F091B503E15FFD4F8081E091AE03F0911C
:101B6000AF0380FF7CC082919091B003980101C0C7
:101B7000220F9A95EAF7822B80838FE39FE10197EA
:101B8000F1F700C000008091B4039091B503039673
:101B90008370907897FDDAC09093B5038093B40377
:101BA000815F9D4FDC018C91E091AB03F091AC0320
:101BB00081FF48C082919091AD03980101C0220F2E
:101BC0009A95EAF7822B8083E091B403F091B503F4
:101BD000E15FFD4F8081E091AE03F091AF0380FFA4
:101BE00024C082919091B003980101C0220F9A9570
:101BF000EAF7822B80838FE39FE10197F1F700C022
:101C000000007092BF037092C0037092C103AECC0B
:101C100022918091B003A80102C0440F551F8A95FC
:101C2000E2F7CA018095822335CE22918091B003DC
:101C3000A80102C0440F551F8A95E2F7CA0180959A
:101C40008223D8CF22918091AD03280102C0440C99
:101C5000551C8A95E2F7C20180958223B4CF229168
:101C60008091B003A80102C0440F551F8A95E2F786
:101C7000CA018095822380CF22918091AD032801F3
:101C800002C0440C551C8A95E2F7C201809582235C
:101C90005CCF22918091B003280102C0440C551CF6
:101CA0008A95E2F7C2018095822328CF8291209500
:101CB00028230DCF22918091AD03280102C0440C4E
:101CC000551C8A95E2F7C20180958223CCCD2291E2
:101CD0008091B003A80102C0440F551F8A95E2F716
:101CE000CA018095822398CD22918091AD0328016D
:101CF00002C0440C551C8A95E2F7C20180958223EC
:101D000074CD22918091B003280102C0440C551C6F
:101D10008A95E2F7C2018095822340CD8291209579
:101D2000282325CD01978C6F9F6F019647CD019792
:101D30008C6F9F6F019600CD01978C6F9F6F0196FE
:101D4000ABCE01978C6F9F6F019676CD01978C6F0C
:101D50009F6F019621CF01978C6F9F6F0196DECE0A
:101D6000E0919C03F0919D03208180919E032801C6
:101D700002C0440C551C8A95E2F7C201809582236B
:101D80008083E0909F03F090A003D7019C91809105
:101D9000A103680101C0CC0C8A95EAF78C2D8095CF
:101DA00089238C9382EE0E944706F7018081C82A1E
:101DB000C082E0909F03F090A003D7019C91809196
:101DC000A103680101C0CC0C8A95EAF78C2D80959F
:101DD00089238C9381EE0E944706F7018081C82AEF
:101DE000C082E0919C03F0919D03DF0112978C91DA
:101DF00020919E0390E0022E02C0959587950A944B
:101E0000E2F7AC01417055275AA349A33081C801BC
:101E100001C0880F2A95EAF7809583238083C090BC
:101E20009F03D090A003D6019C918091A10328012B
:101E300001C0440C8A95EAF7842D809589238C9300
:101E400080E60E94470680E00E944706E82EF601E1
:101E50008081482A408240909F035090A003D20185
:101E60009C918091A103180101C0220C8A95EAF788
:101E7000822D809589238C9381E60E944706EE206F
:101E800081F0FE0131966F019F012E0D311D790108
:101E900080E00E944706D6018D936D01EA16FB068D
:101EA000B9F7F2018081282A2082E0909F03F09008
:101EB000A003D7019C918091A103680101C0CC0CC3
:101EC0008A95EAF78C2D809589238C9387E00E9470
:101ED000470680E00E944706582EF7018081C82AF5
:101EE000C082E0909F03F090A003D7019C91809165
:101EF000A103680101C0CC0C8A95EAF78C2D80956E
:101F000089238C9387E20E944706852D80640E9476
:101F10004706F7018081C82AC08249A05AA0E091F3
:101F20009C03F0919D03452809F0AFC0208180916A
:101F30009E03A80102C0440F551F8A95E2F7CA010B
:101F40008095822380831092BF031092C003609219
:101F5000C103E0909F03F090A003D7019C91809172
:101F6000A103680101C0CC0C8A95EAF78C2D8095FD
:101F700089238C9380E00E94470680E00E944706F8
:101F8000582EF7018081C82AC082E0909F03F0900C
:101F9000A003D7019C918091A103680101C0CC0CE2
:101FA0008A95EAF78C2D809589238C9380E20E9494
:101FB0004706852D83600E944706F7018081C82A65
:101FC000C082E0909F03F090A003D7019C91809184
:101FD000A103680101C0CC0C8A95EAF78C2D80958D
:101FE00089238C9387E20E94470680E70E94470678
:101FF000F7018081C82AC082E0909F03F090A0037F
:10200000D7019C918091A103680101C0CC0C8A95F5
:10201000EAF78C2D809589238C9382EE0E944706E7
:10202000F7018081C82AC082E0909F03F090A0034E
:10203000D7019C918091A103680101C0CC0C8A95C5
:10204000EAF78C2D809589238C9381EE0E944706B8
:10205000F7018081C82AC082E0919C03F0919D0322
:10206000808190919E03980101C0220F9A95EAF712
:10207000822B808387E092E00197F1F700C0000097
:102080008981FECC8FEF91E06DCC808190919E0391
:10209000980101C0220F9A95EAF7822B53CFB0E046
:1020A000A0E0E5E5F0E10C94AB128AE0E0E0F2E0BC
:1020B000A3EFB4E001900D928A95E1F710927E05AE
:1020C00010927D051092800510927F051092820576
:1020D00010928105E091FB04F091FC0489E190E00D
:1020E00091838083E091F704F091F80488E980837C
:1020F000E091F904F091FA0486E0808383EF94E0A4
:1021000090938405809383051092EE041092ED0461
:102110001092F0041092EF041092F2041092F10465
:10212000EFEBF3E0108211821282339664E0ED3619
:10213000F607C1F722E230E03093BD032093BC03E1
:1021400085E08093BE030D98E091BC03F091BD0340
:10215000408181E090E04F7D40833093BA0320932B
:10216000B90347E04093BB030F98E091B903F091A6
:10217000BA0340814F7740833093B7032093B6036F
:1021800023E02093B8030B98E091B603F091B703D6
:102190002081277F20832091B9033091BA03409199
:1021A000BB032093AB033093AC034093AD0320916A
:1021B000B6033091B7034091B8032093AE03309338
:1021C000AF034093B0032091BC033091BD03409115
:1021D000BE032093B1033093B2034093B303109234
:1021E000B5031092B403E091BC03F091BD034081AC
:1021F0002091BE03BC0102C0660F771F2A95E2F74B
:102200009B01209524232083E091B903F091BA0328
:1022100040812091BB03BC0102C0660F771F2A9545
:10222000E2F79B01209524232083E091B603F091EF
:10223000B70340812091B803BC0102C0660F771F2D
:102240002A95E2F79B01209524232083E091BC038B
:10225000F091BD0322913091BE03AC0101C0440F47
:102260003A95EAF7242B2083E091B403F091B5036B
:10227000E15FFD4F208121FF2BC12091AB03309105
:10228000AC03F901319740815091AD0301C0880F33
:102290005A95EAF7842B21503109F9018083E091A6
:1022A000B403F091B503E15FFD4F80812091AE034F
:1022B0003091AF03F901319780FF1AC1808190916D
:1022C000B00341E050E001C0440F9A95EAF7842B37
:1022D00021503109F90180838FE39FE10197F1F7E4
:1022E00000C000002BE031E03093A9032093A80345
:1022F0001092AA0380910A018E7F80930A01E091D7
:10230000A803F091A9038081C1E0D0E08E7F808393
:102310003093A6032093A503772473947092A703A8
:1023200080910A018D7F80930A01E091A503F091CD
:10233000A60380818D7F808385E2A82EB12CB09288
:10234000A303A092A2031092A4032098E091A203F9
:10235000F091A30380818E7F80834091A8038091B8
:10236000A9039091AA03C090A503D090A603309131
:10237000A703E090A203F090A3032091A40340934D
:10238000990380939A0390939B03D0929D03C092EC
:102390009C0330939E03F092A003E0929F0320934E
:1023A000A103E42FF82F4291BE0102C0660F771FF0
:1023B0009A95E2F7CB01809584238083F601829180
:1023C0008E0102C0000F111F3A95E2F7802B808327
:1023D000F70182914E0102C0880C991C2A95E2F700
:1023E000882980830E943B06F6018081009508239E
:1023F0000083F7018081882A8082B0929703A0929F
:10240000960387E080939803279AE0919603F091D2
:10241000970380818F77808322E230E030939403AA
:102420002093930310929503089AE0919303F091FF
:10243000940380818E7F8083309391032093900357
:1024400070929203099AE0919003F0919103808138
:102450008D7F80838091930390919403A091950345
:102460008093880390938903A0938A0380919003BB
:1024700090919103A091920380938B0390938C038E
:10248000A0938D038AE390E090938F0380938E0353
:10249000E0919303F09194038291909195039E01B2
:1024A00001C0220F9A95EAF7822B8083E091900376
:1024B000F091910382919091920301C0CC0F9A9573
:1024C000EAF7C82BC083CDB7DEB7EDE00C94C71296
:1024D0002091AB033091AC03F901319740815091C9
:1024E000AD0301C0880F5A95EAF780958423D3CEB7
:1024F00040815091B00381E090E001C0880F5A956F
:10250000EAF780958423E4CEA1E21A2EAA1BBB1B16
:10251000FD010DC0AA1FBB1FEE1FFF1FA217B307AF
:10252000E407F50720F0A21BB30BE40BF50B661FC5
:10253000771F881F991F1A9469F760957095809589
:1025400090959B01AC01BD01CF0108952F923F9260
:102550004F925F926F927F928F929F92AF92BF92B3
:10256000CF92DF92EF92FF920F931F93CF93DF935F
:10257000CDB7DEB7CA1BDB0B0FB6F894DEBF0FBEBC
:10258000CDBF19942A88398848885F846E847D84F9
:102590008C849B84AA84B984C884DF80EE80FD800B
:1025A0000C811B81AA81B981CE0FD11D0FB6F89481
:1025B000DEBF0FBECDBFED010895EE0FFF1F881FD8
:1025C0008BBF0790F691E02D1994DC0101C06D934B
:0C25D00041505040E0F70895F894FFCF10
:1025DC00C600C000C100C200C400BBCCDDEEFF00D1
:0425EC0002030100E5
:00000001FF
