:100000000C9434000C9449000C9449000C94490061
:100010000C9449000C9449000C9449000C9449003C
:100020000C9449000C9449000C9449000C9449002C
:100030000C9449000C9449000C9449000C9449001C
:100040000C9449000C9449000C9449000C9449000C
:100050000C9449000C9449000C9449000C944900FC
:100060000C9449000C94490011241FBECFEFD8E036
:10007000DEBFCDBF11E0A0E0B1E0E2E0F6E002C0FB
:1000800005900D92A630B107D9F70E94E1010C94BA
:10009000FF020C940000ACE0B0E0E1E5F0E00C946D
:1000A000D80221E030E045E065E270E0CE010A963A
:1000B0000E949D0221E030E043E065E270E0CE0165
:1000C00007960E949D0230E020E044E065E270E087
:1000D000CE0104960E949D0221E030E042E065E2FC
:1000E00070E0CE0101960E949D02E981FA81808133
:1000F0009B8121E030E001C0220F9A95EAF7822B24
:10010000808380E58CBD2C96E2E00C94F4028EBDD9
:100110000DB407FEFDCF8EB50895DC0112964C910B
:10012000129721E030E001C0220F4A95EAF7ED91E5
:10013000FC91319780816130710519F4282B20835F
:10014000089520952823FBCFDC01ED91FC911197B8
:1001500012962C9181E090E001C0880F2A95EAF771
:100160009081662319F0892B8083089580958923D7
:10017000FBCFA6E0B0E0EFEBF0E00C94D602162F38
:10018000042FFC0186819781A08589839A83AB83A4
:100190008C839D83AE8360E0CE0101960E94A40013
:1001A000812F8F7180620E948700802F0E948700BC
:1001B00061E0CE0104960E94A4002696E4E00C942F
:1001C000F202A6E0B0E0E7EEF0E00C94D2027C018F
:1001D000062FC42ED22EFC0186819781A0858983AB
:1001E0009A83AB838C839D83AE8360E0CE010196BE
:1001F0000E94A400802F8F710E94870080E00E94DF
:100200008700182F61E0CE0104960E94A40041E00F
:1002100050E00C2C01C0440F0A94EAF7DD2049F0AD
:10022000412B602FC7010E94B9002696E8E00C948C
:10023000EE0240954123F5CFA1E3B0E0E2E2F1E028
:100240000C94CC028C015B0121E041E060E00E9453
:10025000E10086E791E00197F1F700C0000020E09F
:1002600040E060E0C8010E94E10040E061E0C801B8
:100270000E94B90021E044E066E0C8010E94E1006C
:1002800085E0E0E0F1E0DE01919601900D928A9523
:10029000E1F7F80186819781A0858CA79DA7AEA77D
:1002A00089839A83AB8360E0CE018C960E94A40080
:1002B00080E30E9487007E01F1E2EF0EF11C4E0107
:1002C00086E2880E911C3701F70181917F010E941F
:1002D0008700E814F904C1F761E0CE0101960E949D
:1002E000A400CE0101967C016C018FEFF601819391
:1002F0006F016E167F06D1F7F80186819781A08580
:100300008EA39FA3A8A789A79AA7ABA760E0C40163
:100310000E94A40080EA0E948700F70181917F017A
:100320000E948700EC14FD04C1F761E0CE018996BC
:100330000E94A40020E043E060E0C8010E94E100C8
:100340004A2DF0E6AF16F9E0BF0614F040EA4A0D78
:1003500065E0C8010E94B900780183E0E80EF11C55
:1003600061E0C7010E94A40093E09A95F1F700C0F4
:1003700060E0C7010E94A400E9EFF0E03197F1F7D7
:1003800000C0000061E0C7010E94A400F80186815E
:100390009781A08589A79AA7ABA78FA798ABA9AB90
:1003A00060E0CE0189960E94A40083EE0E9487003F
:1003B00061E0CE018F960E94A400E196EEE00C94DD
:1003C000E802CF93DF93CDB7DEB76E970FB6F89400
:1003D000DEBF0FBECDBF05E210E01D8F0C8F81E0A8
:1003E0008E8F61E070E0CE014C960E948D0060E03F
:1003F000CE014C960E94A4008BE290E09A8F898FE8
:1004000082E0E82EEB8E70E060E0CE0149960E941B
:100410008D0060E0CE0149960E94A4001F8B0E8BD8
:10042000188E70E060E0CE0146960E948D0060E07C
:10043000CE0146960E94A4001C8B0B8BED8A70E0C7
:1004400060E0CE0143960E948D0060E0CE014396AD
:100450000E94A400C98CDA8CEB8CC88AD98AEA8AFB
:100460002E893F89488D2D873E874F878B899C89B0
:10047000AD898A879B87AC87C982DA82EB822C831D
:100480003D834E838F839887A98770E060E0CE011B
:1004900040960E948D0061E070E0CE010D960E94B2
:1004A0008D0061E070E0CE010A960E948D000E94EE
:1004B0004B004AE760E0CE0101960E94B90086E752
:1004C00091E00197F1F700C0000021E042E060E018
:1004D000CE0101960E94E10020E043E066E0CE01FB
:1004E00001960E94E1006CE679E0CE0101960E943F
:1004F0001C0161E0CE014C960E94A4009FE32DE018
:1005000083E0915020408040E1F700C0000020E0EF
:1005100041E060E0CE0101960E94E10060E0CE0182
:100520004C960E94A4009FE32DE083E09150204070
:100530008040E1F700C00000D6CFDC0111967C932B
:100540006E9312964C931297E1E0F0E0CF0102C057
:10055000880F991F4A95E2F7AC01FB013197808122
:100560002130310591F4482B4083ED91FC91119796
:10057000208112963C9181E090E001C0880F3A956D
:10058000EAF7809582238083089540954823ECCF35
:100590002F923F924F925F926F927F928F929F9293
:1005A000AF92BF92CF92DF92EF92FF920F931F9381
:1005B000CF93DF93CDB7DEB7CA1BDB0B0FB6F89432
:1005C000DEBF0FBECDBF09942A88398848885F8472
:1005D0006E847D848C849B84AA84B984C884DF80E3
:1005E000EE80FD800C811B81AA81B981CE0FD11DC7
:1005F0000FB6F894DEBF0FBECDBFED010895F8949D
:02060000FFCF2A
:06060200FFFFFFFFFF00F7
:00000001FF
