:100000000C9434000C9449000C9449000C94490061
:100010000C9449000C9449000C9449000C9449003C
:100020000C9449000C9449000C9449000C9449002C
:100030000C9449000C9449000C9449000C9449001C
:100040000C9449000C9449000C9449000C9449000C
:100050000C9449000C9449000C9449000C944900FC
:100060000C9449000C94490011241FBECFEFD8E036
:10007000DEBFCDBF11E0A0E0B1E0E4E8F6E002C0F1
:1000800005900D92A630B107D9F70E94A6010C94F5
:1000900040030C940000ACE0B0E0E1E5F0E00C942B
:1000A000190321E030E045E065E270E0CE010A96F8
:1000B0000E94DE0221E030E043E065E270E0CE0124
:1000C00007960E94DE0230E020E044E065E270E046
:1000D000CE0104960E94DE0221E030E042E065E2BB
:1000E00070E0CE0101960E94DE02E981FA818081F2
:1000F0009B8121E030E001C0220F9A95EAF7822B24
:10010000808380E58CBD2C96E2E00C9435038EBD97
:100110000DB407FEFDCF8EB50895DC0112964C910B
:10012000129721E030E001C0220F4A95EAF7ED91E5
:10013000FC91319780816130710519F4282B20835F
:10014000089520952823FBCFDC01ED91FC911197B8
:1001500012962C9181E090E001C0880F2A95EAF771
:100160009081662319F0892B8083089580958923D7
:10017000FBCF61E00E94A4000895A6E0B0E0E3ECAC
:10018000F0E00C941803162FFC0186819781A0855E
:1001900089839A83AB838C839D83AE8360E0CE0199
:1001A00001960E94A400812F8F710E94870080E039
:1001B0000E948700182FCE0104960E94B900812F5B
:1001C0002696E3E00C943403A6E0B0E0EAEEF0E01B
:1001D0000C941703162F042FFC0186819781A085AC
:1001E00089839A83AB838C839D83AE8360E0CE0149
:1001F00001960E94A400812F8F7180620E94870067
:10020000802F0E948700CE0104960E94B900269696
:10021000E4E00C943303A6E0B0E0E1E1F1E00C94FB
:100220001303162F6A01E22EFC0186819781A085B7
:1002300089839A83AB838C839D83AE8360E0CE01F8
:1002400001960E94A400812F8F7180620E94870016
:100250008601F12CC8018C199D098E159F0534F477
:10026000F80181918F010E948700F4CFCE0104969E
:100270000E94B9002696E8E00C942F03A6E0B0E0B7
:10028000E4E4F1E00C941903FC0186819781A085D8
:1002900089839A83AB838C839D83AE8360E0CE0198
:1002A00001960E94A40081EE0E948700CE01049670
:1002B0000E94B9002696E2E00C943503A6E0B0E077
:1002C000E4E6F1E00C9417038C0181EE94E00197D1
:1002D000F1F700C000004FE464E0C8010E94E400B0
:1002E00046E066E0C8010E94E4004CE760E0C80117
:1002F0000E94E40040E06CE1C8010E94E40040E795
:1003000067E0C8010E94E4004CE465E0C8010E9477
:10031000E400F80186819781A08589839A83AB8365
:100320008C839D83AE8360E0CE0101960E94A40081
:1003300082EE0E948700CE0104960E94B900C80197
:100340000E943E012696E4E00C943303CF93DF93A2
:10035000CDB7DEB7C454D1090FB6F894DEBF0FBED7
:10036000CDBF05E210E024961FAF0EAF249781E0C9
:1003700025968FAF259761E070E0CE018E5B9F4F91
:100380000E948D0060E0CE018E5B9F4F0E94A40012
:100390008BE290E021969FAF8EAF219792E0E92EFD
:1003A0002296EFAE229770E060E0CE01CF960E94D9
:1003B0008D0060E0CE01CF960E94A4001DAF0CAF6F
:1003C0001EAE70E060E0CE01CC960E948D0060E031
:1003D000CE01CC960E94A4001AAF09AFEBAE70E03C
:1003E00060E0CE01C9960E948D0060E0CE01C99602
:1003F0000E94A4002296CDACDEACEFAC2297CEAA30
:10040000DFAAE8AE2CAD3DAD4EAD2BAB3CAB4DAB5A
:1004100089AD9AADABAD88AB99ABAAABC9A2DAA254
:10042000EBA22CA33DA34EA38FA398A7A9A770E08E
:1004300060E0CE01C6960E948D0061E070E0CE01C2
:10044000C3960E948D0061E070E0CE01C0960E94CC
:100450008D000E944B0060E0CE01C3960E94A40074
:1004600061E0CE01C0960E94A400CE0181960E9458
:100470005E0125E040E051E060E1CE0181960E94FE
:100480000B0125E040E051E06AE0CE0181960E9438
:100490000B0140E261E1CE0181960E94E400FE0181
:1004A000319681E481938F5F8136E1F78FE3898311
:1004B000CC24C394D12CCC0EDD1E20E2C20ED11C64
:1004C00060E0CE0181960E94BD00482F4E7F60E023
:1004D000CE0181960E94E40082E38A95F1F78FA114
:1004E00098A5A9A58AA79BA7ACA78DA79EA7AFA7EC
:1004F00060E0CE018A960E94A40080EA0E948700F4
:100500008E010F5F1F4FF80181918F010E948700BC
:100510000C151D05C1F7CE018D960E94B90061E052
:10052000CE0184960E94A400F5E0FA95F1F760E010
:10053000CE0184960E94A40067E0CE0181960E94BD
:10054000BD008073C9F360E0CE0181960E94BD00BA
:10055000482F4D7F60E0CE0181960E94E400CE01DD
:1005600081960E943E0161E0CE018E5B9F4F0E940A
:10057000A4002FE38DE093E0215080409040E1F70C
:1005800000C0000060E0CE0181960E94BD00482FAF
:100590004D7F60E0CE0181960E94E40060E0CE01D4
:1005A0008E5B9F4F0E94A400EFE3FDE023E0E1504B
:1005B000F0402040E1F700C0000082CFDC0111963E
:1005C0007C936E9312964C931297E1E0F0E0CF018A
:1005D00002C0880F991F4A95E2F7AC01FB013197E1
:1005E00080812130310591F4482B4083ED91FC91BD
:1005F0001197208112963C9181E090E001C0880F14
:100600003A95EAF7809582238083089540954823A0
:10061000ECCF2F923F924F925F926F927F928F9288
:100620009F92AF92BF92CF92DF92EF92FF920F9381
:100630001F93CF93DF93CDB7DEB7CA1BDB0B0FB68B
:10064000F894DEBF0FBECDBF09942A883988488848
:100650005F846E847D848C849B84AA84B984C884DE
:10066000DF80EE80FD800C811B81AA81B981CE0FD5
:10067000D11D0FB6F894DEBF0FBECDBFED010895BA
:04068000F894FFCF1C
:06068400314E6F646500B9
:00000001FF
